{
  "contractName": "Contract1",
  "abi": [
    {
      "constant": false,
      "inputs": [
        {
          "name": "unique_identification",
          "type": "string"
        },
        {
          "name": "age",
          "type": "int256"
        },
        {
          "name": "name",
          "type": "string"
        },
        {
          "name": "is_smoke",
          "type": "bool"
        },
        {
          "name": "is_consume_alcohol",
          "type": "bool"
        },
        {
          "name": "time_period",
          "type": "int256"
        },
        {
          "name": "add1",
          "type": "string"
        },
        {
          "name": "add2",
          "type": "string"
        },
        {
          "name": "add3",
          "type": "string"
        },
        {
          "name": "phone",
          "type": "string"
        },
        {
          "name": "fax",
          "type": "string"
        },
        {
          "name": "is_house_owner",
          "type": "bool"
        },
        {
          "name": "is_farm_owner",
          "type": "bool"
        },
        {
          "name": "is_pet_owner",
          "type": "bool"
        }
      ],
      "name": "saveUserDetails",
      "outputs": [],
      "payable": true,
      "stateMutability": "payable",
      "type": "function"
    }
  ],
  "bytecode": "0x608060405234801561001057600080fd5b50610819806100206000396000f3fe608060405260043610610041576000357c0100000000000000000000000000000000000000000000000000000000900463ffffffff168063f691e76514610046575b600080fd5b6104da60048036036101c081101561005d57600080fd5b810190808035906020019064010000000081111561007a57600080fd5b82018360208201111561008c57600080fd5b803590602001918460018302840111640100000000831117156100ae57600080fd5b91908080601f016020809104026020016040519081016040528093929190818152602001838380828437600081840152601f19601f820116905080830192505050505050509192919290803590602001909291908035906020019064010000000081111561011b57600080fd5b82018360208201111561012d57600080fd5b8035906020019184600183028401116401000000008311171561014f57600080fd5b91908080601f016020809104026020016040519081016040528093929190818152602001838380828437600081840152601f19601f82011690508083019250505050505050919291929080351515906020019092919080351515906020019092919080359060200190929190803590602001906401000000008111156101d457600080fd5b8201836020820111156101e657600080fd5b8035906020019184600183028401116401000000008311171561020857600080fd5b91908080601f016020809104026020016040519081016040528093929190818152602001838380828437600081840152601f19601f8201169050808301925050505050505091929192908035906020019064010000000081111561026b57600080fd5b82018360208201111561027d57600080fd5b8035906020019184600183028401116401000000008311171561029f57600080fd5b91908080601f016020809104026020016040519081016040528093929190818152602001838380828437600081840152601f19601f8201169050808301925050505050505091929192908035906020019064010000000081111561030257600080fd5b82018360208201111561031457600080fd5b8035906020019184600183028401116401000000008311171561033657600080fd5b91908080601f016020809104026020016040519081016040528093929190818152602001838380828437600081840152601f19601f8201169050808301925050505050505091929192908035906020019064010000000081111561039957600080fd5b8201836020820111156103ab57600080fd5b803590602001918460018302840111640100000000831117156103cd57600080fd5b91908080601f016020809104026020016040519081016040528093929190818152602001838380828437600081840152601f19601f8201169050808301925050505050505091929192908035906020019064010000000081111561043057600080fd5b82018360208201111561044257600080fd5b8035906020019184600183028401116401000000008311171561046457600080fd5b91908080601f016020809104026020016040519081016040528093929190818152602001838380828437600081840152601f19601f8201169050808301925050505050505091929192908035151590602001909291908035151590602001909291908035151590602001909291905050506104dc565b005b6101c0604051908101604052808f81526020018d81526020018e81526020018c151581526020018b151581526020018a81526020018981526020018881526020018781526020018681526020018581526020018415158152602001831515815260200182151581525060008f6040518082805190602001908083835b60208310151561057d5780518252602082019150602081019050602083039250610558565b6001836020036101000a038019825116818451168082178552505050505050905001915050908152602001604051809103902060008201518160000190805190602001906105cc929190610748565b5060208201518160010190805190602001906105e9929190610748565b506040820151816002015560608201518160030160006101000a81548160ff02191690831515021790555060808201518160030160016101000a81548160ff02191690831515021790555060a0820151816004015560c082015181600501908051906020019061065a929190610748565b5060e0820151816006019080519060200190610677929190610748565b50610100820151816007019080519060200190610695929190610748565b506101208201518160080190805190602001906106b3929190610748565b506101408201518160090190805190602001906106d1929190610748565b5061016082015181600a0160006101000a81548160ff02191690831515021790555061018082015181600a0160016101000a81548160ff0219169083151502179055506101a082015181600a0160026101000a81548160ff0219169083151502179055509050505050505050505050505050505050565b828054600181600116156101000203166002900490600052602060002090601f016020900481019282601f1061078957805160ff19168380011785556107b7565b828001600101855582156107b7579182015b828111156107b657825182559160200191906001019061079b565b5b5090506107c491906107c8565b5090565b6107ea91905b808211156107e65760008160009055506001016107ce565b5090565b9056fea165627a7a7230582032cd064f12bd612506914f2fc3f0c6835cfc3906c88cfe28b86c3010da3b13a80029",
  "source": "/* \r\n    @AUTHOR - Raj Jha & Harish Jaggi\r\n*/\r\npragma solidity ^0.5.0;\r\ncontract Contract1 {\r\n    //define mapping to store key-value pairs.\r\n    mapping(string => userRecord) userRecordMapping;\r\n    //organize user records using struct\r\n    struct userRecord\r\n    {\r\n        string unique_identification;\r\n        string name;\r\n        int age;\r\n        bool is_smoke;\r\n        bool is_consume_alcohol;\r\n        int time_period;\r\n        string add1;\r\n        string add2;\r\n        string add3;\r\n        string phone;\r\n        string fax;\r\n        bool is_house_owner;\r\n        bool is_farm_owner;\r\n        bool is_pet_owner;\r\n    }\r\n    //this method will throw \"stack to deep\" error.Because of more number of argument in function. If we remove one argument from function then it will work.\r\n    function saveUserDetails(string memory unique_identification, int age, string memory name, bool is_smoke, bool is_consume_alcohol, int time_period,string memory add1, string memory add2, string memory add3, string memory phone,string memory fax, bool is_house_owner, bool is_farm_owner, bool is_pet_owner) public payable  {\r\n        userRecordMapping[unique_identification] = userRecord(unique_identification, name, age, is_smoke, is_consume_alcohol, time_period, add1, add2, add3, phone,fax, is_house_owner, is_farm_owner, is_pet_owner);\r\n    }\r\n}",
  "sourcePath": "D:/blockchain/Training/BTA Books/Book Chapters/Chapter9/Code-Samples_Chapter9/truffle-debug/contracts/Contract1.sol",
  "compiler": {
    "name": "solc",
    "version": "0.5.0+commit.1d4f565a.Emscripten.clang"
  },
  "schemaVersion": "3.0.9",
  "updatedAt": "2019-05-31T06:29:24.100Z",
  "devdoc": {
    "methods": {}
  },
  "userdoc": {
    "methods": {}
  }
}