{
  "contractName": "Contract2",
  "abi": [
    {
      "constant": false,
      "inputs": [
        {
          "name": "_value",
          "type": "string"
        }
      ],
      "name": "method1",
      "outputs": [],
      "payable": false,
      "stateMutability": "nonpayable",
      "type": "function"
    }
  ],
  "bytecode": "0x608060405234801561001057600080fd5b50610206806100206000396000f3fe608060405260043610610041576000357c0100000000000000000000000000000000000000000000000000000000900463ffffffff168063a24d5a3214610046575b600080fd5b34801561005257600080fd5b5061010c6004803603602081101561006957600080fd5b810190808035906020019064010000000081111561008657600080fd5b82018360208201111561009857600080fd5b803590602001918460018302840111640100000000831117156100ba57600080fd5b91908080601f016020809104026020016040519081016040528093929190818152602001838380828437600081840152601f19601f82011690508083019250505050505050919291929050505061010e565b005b5b60011561013257806000908051906020019061012c929190610135565b5061010f565b50565b828054600181600116156101000203166002900490600052602060002090601f016020900481019282601f1061017657805160ff19168380011785556101a4565b828001600101855582156101a4579182015b828111156101a3578251825591602001919060010190610188565b5b5090506101b191906101b5565b5090565b6101d791905b808211156101d35760008160009055506001016101bb565b5090565b9056fea165627a7a72305820ca82ad42e630a74ebfd587c4479e478333b03dc21f9cebc01d5c403f57e145760029",
  "source": "/*\r\n    @AUTHOR - Raj Jha & Harish Jaggi\r\n*/\r\npragma solidity ^0.5.0;\r\ncontract Contract2{\r\n    string private value;\r\n    //EVM rejects execution and return out of gas.\r\n    function method1(string memory _value) public{\r\n        while(true){ //infinite loop cause out of gas.\r\n          value = _value;\r\n        }\r\n    }\r\n}",
  "sourcePath": "D:/blockchain/Training/BTA Books/Book Chapters/Chapter9/Code-Samples_Chapter9/truffle-debug/contracts/Contract2.sol",
  "compiler": {
    "name": "solc",
    "version": "0.5.0+commit.1d4f565a.Emscripten.clang"
  },
  "schemaVersion": "3.0.9",
  "updatedAt": "2019-05-31T06:29:24.105Z",
  "devdoc": {
    "methods": {}
  },
  "userdoc": {
    "methods": {}
  }
}