{
  "contractName": "Contract3",
  "abi": [
    {
      "constant": false,
      "inputs": [
        {
          "name": "num",
          "type": "uint256"
        },
        {
          "name": "num1",
          "type": "uint256"
        }
      ],
      "name": "divide",
      "outputs": [
        {
          "name": "",
          "type": "uint256"
        }
      ],
      "payable": false,
      "stateMutability": "nonpayable",
      "type": "function"
    }
  ],
  "bytecode": "0x608060405234801561001057600080fd5b5060e38061001f6000396000f3fe608060405260043610603f576000357c0100000000000000000000000000000000000000000000000000000000900463ffffffff168063f88e9fbf146044575b600080fd5b348015604f57600080fd5b50608360048036036040811015606457600080fd5b8101908080359060200190929190803590602001909291905050506099565b6040518082815260200191505060405180910390f35b6000818381151560a557fe5b0460008190555060005490509291505056fea165627a7a723058204d714870adca15c95c4db92cd130e7961e6c2b65ca034db835525a869d2dfe750029",
  "source": "/*\r\n    @AUTHOR - Raj Jha & Harish Jaggi\r\n*/\r\npragma solidity ^0.5.0;\r\ncontract Contract3{\r\n    uint result;\r\n    /*will raise \"LogicalError.devide errored: VM error: invalid opcode\"\r\n      if num1 is 0. Divide by Zero.\r\n    */\r\n    function divide(uint num, uint num1) public returns (uint) {\r\n        result = num/num1;\r\n        return result;\r\n    }\r\n}",
  "sourcePath": "D:/blockchain/Training/BTA Books/Book Chapters/Chapter9/Code-Samples_Chapter9/truffle-debug/contracts/Contract3.sol",
  "compiler": {
    "name": "solc",
    "version": "0.5.0+commit.1d4f565a.Emscripten.clang"
  },
  "schemaVersion": "3.0.9",
  "updatedAt": "2019-05-31T06:29:24.109Z",
  "devdoc": {
    "methods": {}
  },
  "userdoc": {
    "methods": {}
  }
}